{
  "contractName": "Storage",
  "abi": [
    {
      "anonymous": false,
      "inputs": [
        {
          "indexed": false,
          "internalType": "address",
          "name": "owner",
          "type": "address"
        },
        {
          "indexed": false,
          "internalType": "uint256",
          "name": "index",
          "type": "uint256"
        }
      ],
      "name": "StoredFile",
      "type": "event"
    },
    {
      "constant": false,
      "inputs": [
        {
          "internalType": "string",
          "name": "hash",
          "type": "string"
        },
        {
          "internalType": "uint256",
          "name": "amount",
          "type": "uint256"
        },
        {
          "internalType": "address[]",
          "name": "shareWith",
          "type": "address[]"
        }
      ],
      "name": "add",
      "outputs": [],
      "payable": false,
      "stateMutability": "nonpayable",
      "type": "function"
    },
    {
      "constant": false,
      "inputs": [
        {
          "internalType": "uint256",
          "name": "index",
          "type": "uint256"
        }
      ],
      "name": "deleteFile",
      "outputs": [],
      "payable": false,
      "stateMutability": "nonpayable",
      "type": "function"
    },
    {
      "constant": true,
      "inputs": [
        {
          "internalType": "uint256",
          "name": "index",
          "type": "uint256"
        }
      ],
      "name": "getFile",
      "outputs": [
        {
          "internalType": "string",
          "name": "",
          "type": "string"
        }
      ],
      "payable": false,
      "stateMutability": "view",
      "type": "function"
    },
    {
      "constant": true,
      "inputs": [],
      "name": "getIndexes",
      "outputs": [
        {
          "internalType": "uint256[]",
          "name": "",
          "type": "uint256[]"
        }
      ],
      "payable": false,
      "stateMutability": "view",
      "type": "function"
    }
  ],
  "bytecode": "0x608060405234801561001057600080fd5b506111de806100206000396000f3fe608060405234801561001057600080fd5b506004361061004c5760003560e01c80631d802247146100515780632bfda313146100b0578063b9e0fa8a14610157578063c5b42006146102b0575b600080fd5b6100596102de565b6040518080602001828103825283818151815260200191508051906020019060200280838360005b8381101561009c578082015181840152602081019050610081565b505050509050019250505060405180910390f35b6100dc600480360360208110156100c657600080fd5b8101908080359060200190929190505050610373565b6040518080602001828103825283818151815260200191508051906020019080838360005b8381101561011c578082015181840152602081019050610101565b50505050905090810190601f1680156101495780820380516001836020036101000a031916815260200191505b509250505060405180910390f35b6102ae6004803603606081101561016d57600080fd5b810190808035906020019064010000000081111561018a57600080fd5b82018360208201111561019c57600080fd5b803590602001918460018302840111640100000000831117156101be57600080fd5b91908080601f016020809104026020016040519081016040528093929190818152602001838380828437600081840152601f19601f820116905080830192505050505050509192919290803590602001909291908035906020019064010000000081111561022b57600080fd5b82018360208201111561023d57600080fd5b8035906020019184602083028401116401000000008311171561025f57600080fd5b919080806020026020016040519081016040528093929190818152602001838360200280828437600081840152601f19601f820116905080830192505050505050509192919290505050610584565b005b6102dc600480360360208110156102c657600080fd5b81019080803590602001909291905050506108da565b005b6060600360003373ffffffffffffffffffffffffffffffffffffffff1673ffffffffffffffffffffffffffffffffffffffff16815260200190815260200160002080548060200260200160405190810160405280929190818152602001828054801561036957602002820191906000526020600020905b815481526020019060010190808311610355575b5050505050905090565b6060816000818154811061038357fe5b906000526020600020906004020160030160003373ffffffffffffffffffffffffffffffffffffffff1673ffffffffffffffffffffffffffffffffffffffff16815260200190815260200160002060009054906101000a900460ff168061045357503373ffffffffffffffffffffffffffffffffffffffff166000828154811061040957fe5b906000526020600020906004020160000160009054906101000a900473ffffffffffffffffffffffffffffffffffffffff1673ffffffffffffffffffffffffffffffffffffffff16145b6104c5576040517f08c379a00000000000000000000000000000000000000000000000000000000081526004018080602001828103825260188152602001807f596f752063616e206e6f7420736565207468652066696c65000000000000000081525060200191505060405180910390fd5b600083815481106104d257fe5b90600052602060002090600402016001018054600181600116156101000203166002900480601f0160208091040260200160405190810160405280929190818152602001828054600181600116156101000203166002900480156105775780601f1061054c57610100808354040283529160200191610577565b820191906000526020600020905b81548152906001019060200180831161055a57829003601f168201915b5050505050915050919050565b806002846040518082805190602001908083835b602083106105bb5780518252602082019150602081019050602083039250610598565b6001836020036101000a03801982511681845116808217855250505050505090500191505090815260200160405180910390209080519060200190610601929190610e75565b5060006001600060405180606001604052803373ffffffffffffffffffffffffffffffffffffffff168152602001878152602001868152509080600181540180825580915050906001820390600052602060002090600402016000909192909190915060008201518160000160006101000a81548173ffffffffffffffffffffffffffffffffffffffff021916908373ffffffffffffffffffffffffffffffffffffffff16021790555060208201518160010190805190602001906106c7929190610eff565b5060408201518160020155505003905060005b82518163ffffffff161015610783576001600083815481106106f857fe5b90600052602060002090600402016003016000858463ffffffff168151811061071d57fe5b602002602001015173ffffffffffffffffffffffffffffffffffffffff1673ffffffffffffffffffffffffffffffffffffffff16815260200190815260200160002060006101000a81548160ff02191690831515021790555080806001019150506106da565b50600360003373ffffffffffffffffffffffffffffffffffffffff1673ffffffffffffffffffffffffffffffffffffffff168152602001908152602001600020819080600181540180825580915050906001820390600052602060002001600090919290919091505550600160003373ffffffffffffffffffffffffffffffffffffffff1673ffffffffffffffffffffffffffffffffffffffff168152602001908152602001600020849080600181540180825580915050906001820390600052602060002001600090919290919091509080519060200190610867929190610f7f565b50507f020481648efb1db185535336ec9dc6de84284ee6682433495c5770f1642513303382604051808373ffffffffffffffffffffffffffffffffffffffff1673ffffffffffffffffffffffffffffffffffffffff1681526020018281526020019250505060405180910390a150505050565b80600081815481106108e857fe5b906000526020600020906004020160030160003373ffffffffffffffffffffffffffffffffffffffff1673ffffffffffffffffffffffffffffffffffffffff16815260200190815260200160002060009054906101000a900460ff16806109b857503373ffffffffffffffffffffffffffffffffffffffff166000828154811061096e57fe5b906000526020600020906004020160000160009054906101000a900473ffffffffffffffffffffffffffffffffffffffff1673ffffffffffffffffffffffffffffffffffffffff16145b610a2a576040517f08c379a00000000000000000000000000000000000000000000000000000000081526004018080602001828103825260188152602001807f596f752063616e206e6f7420736565207468652066696c65000000000000000081525060200191505060405180910390fd5b600260008381548110610a3957fe5b90600052602060002090600402016001016040518082805460018160011615610100020316600290048015610aa55780601f10610a83576101008083540402835291820191610aa5565b820191906000526020600020905b815481529060010190602001808311610a91575b505091505090815260200160405180910390206000610ac49190610fff565b60008281548110610ad157fe5b9060005260206000209060040201600080820160006101000a81549073ffffffffffffffffffffffffffffffffffffffff0219169055600182016000610b179190611020565b60028201600090555050610c4982600160003373ffffffffffffffffffffffffffffffffffffffff1673ffffffffffffffffffffffffffffffffffffffff168152602001908152602001600020805480602002602001604051908101604052809291908181526020016000905b82821015610c40578382906000526020600020018054600181600116156101000203166002900480601f016020809104026020016040519081016040528092919081815260200182805460018160011615610100020316600290048015610c2c5780601f10610c0157610100808354040283529160200191610c2c565b820191906000526020600020905b815481529060010190602001808311610c0f57829003601f168201915b505050505081526020019060010190610b84565b50505050610d8a565b600160003373ffffffffffffffffffffffffffffffffffffffff1673ffffffffffffffffffffffffffffffffffffffff1681526020019081526020016000209080519060200190610c9b929190611068565b50610d3382600360003373ffffffffffffffffffffffffffffffffffffffff1673ffffffffffffffffffffffffffffffffffffffff168152602001908152602001600020805480602002602001604051908101604052809291908181526020018280548015610d2957602002820191906000526020600020905b815481526020019060010190808311610d15575b5050505050610dff565b600360003373ffffffffffffffffffffffffffffffffffffffff1673ffffffffffffffffffffffffffffffffffffffff1681526020019081526020016000209080519060200190610d859291906110c8565b505050565b606060008390505b6001835103811015610dd957826001820181518110610dad57fe5b6020026020010151838281518110610dc157fe5b60200260200101819052508080600101915050610d92565b5081600183510381518110610dea57fe5b60200260200101606081525081905092915050565b606060008390505b6001835103811015610e4f57826001820181518110610e2257fe5b6020026020010151838281518110610e3657fe5b6020026020010181815250508080600101915050610e07565b5081600183510381518110610e6057fe5b60200260200101600081525081905092915050565b828054828255906000526020600020908101928215610eee579160200282015b82811115610eed5782518260006101000a81548173ffffffffffffffffffffffffffffffffffffffff021916908373ffffffffffffffffffffffffffffffffffffffff16021790555091602001919060010190610e95565b5b509050610efb9190611115565b5090565b828054600181600116156101000203166002900490600052602060002090601f016020900481019282601f10610f4057805160ff1916838001178555610f6e565b82800160010185558215610f6e579182015b82811115610f6d578251825591602001919060010190610f52565b5b509050610f7b9190611158565b5090565b828054600181600116156101000203166002900490600052602060002090601f016020900481019282601f10610fc057805160ff1916838001178555610fee565b82800160010185558215610fee579182015b82811115610fed578251825591602001919060010190610fd2565b5b509050610ffb9190611158565b5090565b508054600082559060005260206000209081019061101d9190611158565b50565b50805460018160011615610100020316600290046000825580601f106110465750611065565b601f0160209004906000526020600020908101906110649190611158565b5b50565b8280548282559060005260206000209081019282156110b7579160200282015b828111156110b65782518290805190602001906110a6929190610eff565b5091602001919060010190611088565b5b5090506110c4919061117d565b5090565b828054828255906000526020600020908101928215611104579160200282015b828111156111035782518255916020019190600101906110e8565b5b5090506111119190611158565b5090565b61115591905b8082111561115157600081816101000a81549073ffffffffffffffffffffffffffffffffffffffff02191690555060010161111b565b5090565b90565b61117a91905b8082111561117657600081600090555060010161115e565b5090565b90565b6111a691905b808211156111a257600081816111999190611020565b50600101611183565b5090565b9056fea265627a7a72315820405639af826dc7053b15e4a7a46caa8c9afe7228dacee426bfc064ee2f10bd6d64736f6c634300050c0032",
  "source": "pragma solidity ^0.5.8;\n\ncontract Storage {\n    event StoredFile(address owner, uint index);\n\n    struct File {\n        address owner;\n        string hash;\n        uint amount;\n        mapping(address => bool) sharedWith;\n    }\n\n    File[] private files;\n\n    mapping(address => string[]) hashes;\n    mapping(string => address[]) hashShared;\n    mapping(address => uint[]) ownFiles;\n\n    modifier canView(uint index) {\n        require(files[index].sharedWith[msg.sender] || files[index].owner == msg.sender, 'You can not see the file');\n        _;\n    }\n\n    function add(string memory hash, uint amount, address[] memory shareWith) public {\n        hashShared[hash] = shareWith;\n        uint index = files.push(File(msg.sender, hash, amount)) - 1;\n        for(uint32 i; i < shareWith.length; i++){\n            files[index].sharedWith[shareWith[i]] = true;\n        }\n\n        ownFiles[msg.sender].push(index);\n        hashes[msg.sender].push(hash);\n        emit StoredFile(msg.sender, index);\n    }\n\n    function deleteFile(uint index) public canView(index) {\n        delete hashShared[files[index].hash];\n        delete files[index];\n        hashes[msg.sender] = removeHashes(index, hashes[msg.sender]);\n        ownFiles[msg.sender] = remove(index, ownFiles[msg.sender]);\n    }\n\n    function getFile(uint index) public view canView(index) returns(string memory){\n        return files[index].hash;\n    }\n\n    function getIndexes() public view returns (uint[] memory) {\n        return ownFiles[msg.sender];\n    }\n\n    function removeHashes(uint index, string[] memory array) private pure returns(string[] memory) {\n        for (uint i = index; i < array.length - 1; i++) {\n            array[i] = array[i+1];\n        }\n        delete array[array.length-1];\n        return array;\n    }\n\n    function remove(uint index, uint[] memory array) private pure returns(uint[] memory) {\n        for (uint i = index; i < array.length - 1; i++) {\n            array[i] = array[i+1];\n        }\n        delete array[array.length-1];\n        return array;\n    }\n}",
  "sourcePath": "/home/oxoft/Documents/dapp/contracts/Storage.sol",
  "compiler": {
    "name": "solc",
    "version": "0.5.12+commit.7709ece9.Emscripten.clang"
  },
  "schemaVersion": "3.0.19",
  "updatedAt": "2019-11-26T17:13:29.528Z",
  "devdoc": {
    "methods": {}
  },
  "userdoc": {
    "methods": {}
  }
}