{
  "contractName": "Storage",
  "abi": [
    {
      "anonymous": false,
      "inputs": [
        {
          "indexed": false,
          "internalType": "address",
          "name": "owner",
          "type": "address"
        },
        {
          "indexed": false,
          "internalType": "uint256",
          "name": "index",
          "type": "uint256"
        }
      ],
      "name": "StoredFile",
      "type": "event"
    },
    {
      "anonymous": false,
      "inputs": [
        {
          "indexed": false,
          "internalType": "string",
          "name": "fileName",
          "type": "string"
        },
        {
          "indexed": false,
          "internalType": "uint256",
          "name": "branchId",
          "type": "uint256"
        }
      ],
      "name": "__AssertPostCoverageStorage",
      "type": "event"
    },
    {
      "anonymous": false,
      "inputs": [
        {
          "indexed": false,
          "internalType": "string",
          "name": "fileName",
          "type": "string"
        },
        {
          "indexed": false,
          "internalType": "uint256",
          "name": "branchId",
          "type": "uint256"
        }
      ],
      "name": "__AssertPreCoverageStorage",
      "type": "event"
    },
    {
      "anonymous": false,
      "inputs": [
        {
          "indexed": false,
          "internalType": "string",
          "name": "fileName",
          "type": "string"
        },
        {
          "indexed": false,
          "internalType": "uint256",
          "name": "branchId",
          "type": "uint256"
        },
        {
          "indexed": false,
          "internalType": "uint256",
          "name": "locationIdx",
          "type": "uint256"
        }
      ],
      "name": "__BranchCoverageStorage",
      "type": "event"
    },
    {
      "anonymous": false,
      "inputs": [
        {
          "indexed": false,
          "internalType": "string",
          "name": "fileName",
          "type": "string"
        },
        {
          "indexed": false,
          "internalType": "uint256",
          "name": "lineNumber",
          "type": "uint256"
        }
      ],
      "name": "__CoverageStorage",
      "type": "event"
    },
    {
      "anonymous": false,
      "inputs": [
        {
          "indexed": false,
          "internalType": "string",
          "name": "fileName",
          "type": "string"
        },
        {
          "indexed": false,
          "internalType": "uint256",
          "name": "fnId",
          "type": "uint256"
        }
      ],
      "name": "__FunctionCoverageStorage",
      "type": "event"
    },
    {
      "anonymous": false,
      "inputs": [
        {
          "indexed": false,
          "internalType": "string",
          "name": "fileName",
          "type": "string"
        },
        {
          "indexed": false,
          "internalType": "uint256",
          "name": "statementId",
          "type": "uint256"
        }
      ],
      "name": "__StatementCoverageStorage",
      "type": "event"
    },
    {
      "constant": false,
      "inputs": [
        {
          "internalType": "string",
          "name": "hash",
          "type": "string"
        },
        {
          "internalType": "uint256",
          "name": "amount",
          "type": "uint256"
        },
        {
          "internalType": "address[]",
          "name": "shareWith",
          "type": "address[]"
        }
      ],
      "name": "add",
      "outputs": [],
      "payable": false,
      "stateMutability": "nonpayable",
      "type": "function"
    },
    {
      "constant": false,
      "inputs": [
        {
          "internalType": "uint256",
          "name": "index",
          "type": "uint256"
        }
      ],
      "name": "deleteFile",
      "outputs": [],
      "payable": false,
      "stateMutability": "nonpayable",
      "type": "function"
    },
    {
      "constant": false,
      "inputs": [
        {
          "internalType": "uint256",
          "name": "index",
          "type": "uint256"
        }
      ],
      "name": "getFile",
      "outputs": [
        {
          "internalType": "string",
          "name": "",
          "type": "string"
        }
      ],
      "payable": false,
      "stateMutability": "nonpayable",
      "type": "function"
    },
    {
      "constant": false,
      "inputs": [],
      "name": "getIndexes",
      "outputs": [
        {
          "internalType": "uint256[]",
          "name": "",
          "type": "uint256[]"
        }
      ],
      "payable": false,
      "stateMutability": "nonpayable",
      "type": "function"
    }
  ],
  "bytecode": "0x608060405234801561001057600080fd5b5061246d806100206000396000f3fe608060405234801561001057600080fd5b506004361061004c5760003560e01c80631d802247146100515780632bfda313146100b0578063b9e0fa8a14610157578063c5b42006146102b0575b600080fd5b6100596102de565b6040518080602001828103825283818151815260200191508051906020019060200280838360005b8381101561009c578082015181840152602081019050610081565b505050509050019250505060405180910390f35b6100dc600480360360208110156100c657600080fd5b810190808035906020019092919050505061046f565b6040518080602001828103825283818151815260200191508051906020019080838360005b8381101561011c578082015181840152602081019050610101565b50505050905090810190601f1680156101495780820380516001836020036101000a031916815260200191505b509250505060405180910390f35b6102ae6004803603606081101561016d57600080fd5b810190808035906020019064010000000081111561018a57600080fd5b82018360208201111561019c57600080fd5b803590602001918460018302840111640100000000831117156101be57600080fd5b91908080601f016020809104026020016040519081016040528093929190818152602001838380828437600081840152601f19601f820116905080830192505050505050509192919290803590602001909291908035906020019064010000000081111561022b57600080fd5b82018360208201111561023d57600080fd5b8035906020019184602083028401116401000000008311171561025f57600080fd5b919080806020026020016040519081016040528093929190818152602001838360200280828437600081840152601f19601f820116905080830192505050505050509192919290505050610974565b005b6102dc600480360360208110156102c657600080fd5b81019080803590602001909291905050506111b6565b005b60607f93848a62e44d6f7ae96860fd7479651753532c5f79482ebd07280927d2b753336005604051808060200183815260200182810382526030815260200180612409603091396040019250505060405180910390a17f083e253619f4108b7cddf8ea0172e054d4119e927c692e0b3a57335b8c1095ad6030604051808060200183815260200182810382526030815260200180612409603091396040019250505060405180910390a17f4c45d9e27bc94e8aeb96d310446ad7a7b921d4dc0522110dc1c3049704e7f927600c604051808060200183815260200182810382526030815260200180612409603091396040019250505060405180910390a1600360003373ffffffffffffffffffffffffffffffffffffffff1673ffffffffffffffffffffffffffffffffffffffff16815260200190815260200160002080548060200260200160405190810160405280929190818152602001828054801561046557602002820191906000526020600020905b815481526020019060010190808311610451575b5050505050905090565b6060817f93848a62e44d6f7ae96860fd7479651753532c5f79482ebd07280927d2b753336001604051808060200183815260200182810382526030815260200180612409603091396040019250505060405180910390a17f083e253619f4108b7cddf8ea0172e054d4119e927c692e0b3a57335b8c1095ad6014604051808060200183815260200182810382526030815260200180612409603091396040019250505060405180910390a17fca2ba4f2e40e9330fdbc3c450fe7ab95b4ac78ebe516f165ec1b2f4dec125b286001604051808060200183815260200182810382526030815260200180612409603091396040019250505060405180910390a17f4c45d9e27bc94e8aeb96d310446ad7a7b921d4dc0522110dc1c3049704e7f9276001604051808060200183815260200182810382526030815260200180612409603091396040019250505060405180910390a1600081815481106105cf57fe5b906000526020600020906004020160030160003373ffffffffffffffffffffffffffffffffffffffff1673ffffffffffffffffffffffffffffffffffffffff16815260200190815260200160002060009054906101000a900460ff168061069f57503373ffffffffffffffffffffffffffffffffffffffff166000828154811061065557fe5b906000526020600020906004020160000160009054906101000a900473ffffffffffffffffffffffffffffffffffffffff1673ffffffffffffffffffffffffffffffffffffffff16145b610711576040517f08c379a00000000000000000000000000000000000000000000000000000000081526004018080602001828103825260188152602001807f596f752063616e206e6f7420736565207468652066696c65000000000000000081525060200191505060405180910390fd5b7f9e2d2e2676e2d59465587cb7b60f97a88f707417d31dd0c8e34067a3e229560c6001604051808060200183815260200182810382526030815260200180612409603091396040019250505060405180910390a17f083e253619f4108b7cddf8ea0172e054d4119e927c692e0b3a57335b8c1095ad6015604051808060200183815260200182810382526030815260200180612409603091396040019250505060405180910390a17f93848a62e44d6f7ae96860fd7479651753532c5f79482ebd07280927d2b753336004604051808060200183815260200182810382526030815260200180612409603091396040019250505060405180910390a17f083e253619f4108b7cddf8ea0172e054d4119e927c692e0b3a57335b8c1095ad602c604051808060200183815260200182810382526030815260200180612409603091396040019250505060405180910390a17f4c45d9e27bc94e8aeb96d310446ad7a7b921d4dc0522110dc1c3049704e7f927600b604051808060200183815260200182810382526030815260200180612409603091396040019250505060405180910390a1600083815481106108c257fe5b90600052602060002090600402016001018054600181600116156101000203166002900480601f0160208091040260200160405190810160405280929190818152602001828054600181600116156101000203166002900480156109675780601f1061093c57610100808354040283529160200191610967565b820191906000526020600020905b81548152906001019060200180831161094a57829003601f168201915b5050505050915050919050565b7f93848a62e44d6f7ae96860fd7479651753532c5f79482ebd07280927d2b753336002604051808060200183815260200182810382526030815260200180612409603091396040019250505060405180910390a17f083e253619f4108b7cddf8ea0172e054d4119e927c692e0b3a57335b8c1095ad6019604051808060200183815260200182810382526030815260200180612409603091396040019250505060405180910390a17f4c45d9e27bc94e8aeb96d310446ad7a7b921d4dc0522110dc1c3049704e7f9276002604051808060200183815260200182810382526030815260200180612409603091396040019250505060405180910390a1806002846040518082805190602001908083835b60208310610aa75780518252602082019150602081019050602083039250610a84565b6001836020036101000a03801982511681845116808217855250505050505090500191505090815260200160405180910390209080519060200190610aed9291906120d4565b507f083e253619f4108b7cddf8ea0172e054d4119e927c692e0b3a57335b8c1095ad601a604051808060200183815260200182810382526030815260200180612409603091396040019250505060405180910390a17f4c45d9e27bc94e8aeb96d310446ad7a7b921d4dc0522110dc1c3049704e7f9276003604051808060200183815260200182810382526030815260200180612409603091396040019250505060405180910390a160006001600060405180606001604052803373ffffffffffffffffffffffffffffffffffffffff168152602001878152602001868152509080600181540180825580915050906001820390600052602060002090600402016000909192909190915060008201518160000160006101000a81548173ffffffffffffffffffffffffffffffffffffffff021916908373ffffffffffffffffffffffffffffffffffffffff1602179055506020820151816001019080519060200190610c5b92919061215e565b506040820151816002015550500390507f083e253619f4108b7cddf8ea0172e054d4119e927c692e0b3a57335b8c1095ad601b604051808060200183815260200182810382526030815260200180612409603091396040019250505060405180910390a17f4c45d9e27bc94e8aeb96d310446ad7a7b921d4dc0522110dc1c3049704e7f9276004604051808060200183815260200182810382526030815260200180612409603091396040019250505060405180910390a160005b82518163ffffffff161015610e67577f083e253619f4108b7cddf8ea0172e054d4119e927c692e0b3a57335b8c1095ad601c604051808060200183815260200182810382526030815260200180612409603091396040019250505060405180910390a17f4c45d9e27bc94e8aeb96d310446ad7a7b921d4dc0522110dc1c3049704e7f9276005604051808060200183815260200182810382526030815260200180612409603091396040019250505060405180910390a1600160008381548110610ddc57fe5b90600052602060002090600402016003016000858463ffffffff1681518110610e0157fe5b602002602001015173ffffffffffffffffffffffffffffffffffffffff1673ffffffffffffffffffffffffffffffffffffffff16815260200190815260200160002060006101000a81548160ff0219169083151502179055508080600101915050610d16565b507f083e253619f4108b7cddf8ea0172e054d4119e927c692e0b3a57335b8c1095ad601f604051808060200183815260200182810382526030815260200180612409603091396040019250505060405180910390a17f4c45d9e27bc94e8aeb96d310446ad7a7b921d4dc0522110dc1c3049704e7f9276006604051808060200183815260200182810382526030815260200180612409603091396040019250505060405180910390a1600360003373ffffffffffffffffffffffffffffffffffffffff1673ffffffffffffffffffffffffffffffffffffffff1681526020019081526020016000208190806001815401808255809150509060018203906000526020600020016000909192909190915055507f083e253619f4108b7cddf8ea0172e054d4119e927c692e0b3a57335b8c1095ad6020604051808060200183815260200182810382526030815260200180612409603091396040019250505060405180910390a17f4c45d9e27bc94e8aeb96d310446ad7a7b921d4dc0522110dc1c3049704e7f9276007604051808060200183815260200182810382526030815260200180612409603091396040019250505060405180910390a1600160003373ffffffffffffffffffffffffffffffffffffffff1673ffffffffffffffffffffffffffffffffffffffff16815260200190815260200160002084908060018154018082558091505090600182039060005260206000200160009091929091909150908051906020019061109b9291906121de565b50507f083e253619f4108b7cddf8ea0172e054d4119e927c692e0b3a57335b8c1095ad6021604051808060200183815260200182810382526030815260200180612409603091396040019250505060405180910390a17f4c45d9e27bc94e8aeb96d310446ad7a7b921d4dc0522110dc1c3049704e7f9276008604051808060200183815260200182810382526030815260200180612409603091396040019250505060405180910390a17f020481648efb1db185535336ec9dc6de84284ee6682433495c5770f1642513303382604051808373ffffffffffffffffffffffffffffffffffffffff1673ffffffffffffffffffffffffffffffffffffffff1681526020018281526020019250505060405180910390a150505050565b807f93848a62e44d6f7ae96860fd7479651753532c5f79482ebd07280927d2b753336001604051808060200183815260200182810382526030815260200180612409603091396040019250505060405180910390a17f083e253619f4108b7cddf8ea0172e054d4119e927c692e0b3a57335b8c1095ad6014604051808060200183815260200182810382526030815260200180612409603091396040019250505060405180910390a17fca2ba4f2e40e9330fdbc3c450fe7ab95b4ac78ebe516f165ec1b2f4dec125b286001604051808060200183815260200182810382526030815260200180612409603091396040019250505060405180910390a17f4c45d9e27bc94e8aeb96d310446ad7a7b921d4dc0522110dc1c3049704e7f9276001604051808060200183815260200182810382526030815260200180612409603091396040019250505060405180910390a16000818154811061131457fe5b906000526020600020906004020160030160003373ffffffffffffffffffffffffffffffffffffffff1673ffffffffffffffffffffffffffffffffffffffff16815260200190815260200160002060009054906101000a900460ff16806113e457503373ffffffffffffffffffffffffffffffffffffffff166000828154811061139a57fe5b906000526020600020906004020160000160009054906101000a900473ffffffffffffffffffffffffffffffffffffffff1673ffffffffffffffffffffffffffffffffffffffff16145b611456576040517f08c379a00000000000000000000000000000000000000000000000000000000081526004018080602001828103825260188152602001807f596f752063616e206e6f7420736565207468652066696c65000000000000000081525060200191505060405180910390fd5b7f9e2d2e2676e2d59465587cb7b60f97a88f707417d31dd0c8e34067a3e229560c6001604051808060200183815260200182810382526030815260200180612409603091396040019250505060405180910390a17f083e253619f4108b7cddf8ea0172e054d4119e927c692e0b3a57335b8c1095ad6015604051808060200183815260200182810382526030815260200180612409603091396040019250505060405180910390a17f93848a62e44d6f7ae96860fd7479651753532c5f79482ebd07280927d2b753336003604051808060200183815260200182810382526030815260200180612409603091396040019250505060405180910390a17f083e253619f4108b7cddf8ea0172e054d4119e927c692e0b3a57335b8c1095ad6025604051808060200183815260200182810382526030815260200180612409603091396040019250505060405180910390a16002600083815481106115b557fe5b906000526020600020906004020160010160405180828054600181600116156101000203166002900480156116215780601f106115ff576101008083540402835291820191611621565b820191906000526020600020905b81548152906001019060200180831161160d575b505091505090815260200160405180910390206000611640919061225e565b7f083e253619f4108b7cddf8ea0172e054d4119e927c692e0b3a57335b8c1095ad6026604051808060200183815260200182810382526030815260200180612409603091396040019250505060405180910390a1600082815481106116a157fe5b9060005260206000209060040201600080820160006101000a81549073ffffffffffffffffffffffffffffffffffffffff02191690556001820160006116e7919061227f565b600282016000905550507f083e253619f4108b7cddf8ea0172e054d4119e927c692e0b3a57335b8c1095ad6027604051808060200183815260200182810382526030815260200180612409603091396040019250505060405180910390a17f4c45d9e27bc94e8aeb96d310446ad7a7b921d4dc0522110dc1c3049704e7f9276009604051808060200183815260200182810382526030815260200180612409603091396040019250505060405180910390a16118c182600160003373ffffffffffffffffffffffffffffffffffffffff1673ffffffffffffffffffffffffffffffffffffffff168152602001908152602001600020805480602002602001604051908101604052809291908181526020016000905b828210156118b8578382906000526020600020018054600181600116156101000203166002900480601f0160208091040260200160405190810160405280929190818152602001828054600181600116156101000203166002900480156118a45780601f10611879576101008083540402835291602001916118a4565b820191906000526020600020905b81548152906001019060200180831161188757829003601f168201915b5050505050815260200190600101906117fc565b50505050611aaa565b600160003373ffffffffffffffffffffffffffffffffffffffff1673ffffffffffffffffffffffffffffffffffffffff16815260200190815260200160002090805190602001906119139291906122c7565b507f083e253619f4108b7cddf8ea0172e054d4119e927c692e0b3a57335b8c1095ad6028604051808060200183815260200182810382526030815260200180612409603091396040019250505060405180910390a17f4c45d9e27bc94e8aeb96d310446ad7a7b921d4dc0522110dc1c3049704e7f927600a604051808060200183815260200182810382526030815260200180612409603091396040019250505060405180910390a1611a5382600360003373ffffffffffffffffffffffffffffffffffffffff1673ffffffffffffffffffffffffffffffffffffffff168152602001908152602001600020805480602002602001604051908101604052809291908181526020018280548015611a4957602002820191906000526020600020905b815481526020019060010190808311611a35575b5050505050611dbf565b600360003373ffffffffffffffffffffffffffffffffffffffff1673ffffffffffffffffffffffffffffffffffffffff1681526020019081526020016000209080519060200190611aa5929190612327565b505050565b60607f93848a62e44d6f7ae96860fd7479651753532c5f79482ebd07280927d2b753336006604051808060200183815260200182810382526030815260200180612409603091396040019250505060405180910390a17f083e253619f4108b7cddf8ea0172e054d4119e927c692e0b3a57335b8c1095ad6034604051808060200183815260200182810382526030815260200180612409603091396040019250505060405180910390a17f4c45d9e27bc94e8aeb96d310446ad7a7b921d4dc0522110dc1c3049704e7f927600d604051808060200183815260200182810382526030815260200180612409603091396040019250505060405180910390a160008390505b6001835103811015611c9d577f083e253619f4108b7cddf8ea0172e054d4119e927c692e0b3a57335b8c1095ad6035604051808060200183815260200182810382526030815260200180612409603091396040019250505060405180910390a17f4c45d9e27bc94e8aeb96d310446ad7a7b921d4dc0522110dc1c3049704e7f927600e604051808060200183815260200182810382526030815260200180612409603091396040019250505060405180910390a1826001820181518110611c7157fe5b6020026020010151838281518110611c8557fe5b60200260200101819052508080600101915050611bae565b507f083e253619f4108b7cddf8ea0172e054d4119e927c692e0b3a57335b8c1095ad6037604051808060200183815260200182810382526030815260200180612409603091396040019250505060405180910390a181600183510381518110611d0257fe5b6020026020010160608152507f083e253619f4108b7cddf8ea0172e054d4119e927c692e0b3a57335b8c1095ad6038604051808060200183815260200182810382526030815260200180612409603091396040019250505060405180910390a17f4c45d9e27bc94e8aeb96d310446ad7a7b921d4dc0522110dc1c3049704e7f927600f604051808060200183815260200182810382526030815260200180612409603091396040019250505060405180910390a181905092915050565b60607f93848a62e44d6f7ae96860fd7479651753532c5f79482ebd07280927d2b753336007604051808060200183815260200182810382526030815260200180612409603091396040019250505060405180910390a17f083e253619f4108b7cddf8ea0172e054d4119e927c692e0b3a57335b8c1095ad603c604051808060200183815260200182810382526030815260200180612409603091396040019250505060405180910390a17f4c45d9e27bc94e8aeb96d310446ad7a7b921d4dc0522110dc1c3049704e7f9276010604051808060200183815260200182810382526030815260200180612409603091396040019250505060405180910390a160008390505b6001835103811015611fb3577f083e253619f4108b7cddf8ea0172e054d4119e927c692e0b3a57335b8c1095ad603d604051808060200183815260200182810382526030815260200180612409603091396040019250505060405180910390a17f4c45d9e27bc94e8aeb96d310446ad7a7b921d4dc0522110dc1c3049704e7f9276011604051808060200183815260200182810382526030815260200180612409603091396040019250505060405180910390a1826001820181518110611f8657fe5b6020026020010151838281518110611f9a57fe5b6020026020010181815250508080600101915050611ec3565b507f083e253619f4108b7cddf8ea0172e054d4119e927c692e0b3a57335b8c1095ad603f604051808060200183815260200182810382526030815260200180612409603091396040019250505060405180910390a18160018351038151811061201857fe5b6020026020010160008152507f083e253619f4108b7cddf8ea0172e054d4119e927c692e0b3a57335b8c1095ad60408051808060200183815260200182810382526030815260200180612409603091396040019250505060405180910390a17f4c45d9e27bc94e8aeb96d310446ad7a7b921d4dc0522110dc1c3049704e7f9276012604051808060200183815260200182810382526030815260200180612409603091396040019250505060405180910390a181905092915050565b82805482825590600052602060002090810192821561214d579160200282015b8281111561214c5782518260006101000a81548173ffffffffffffffffffffffffffffffffffffffff021916908373ffffffffffffffffffffffffffffffffffffffff160217905550916020019190600101906120f4565b5b50905061215a9190612374565b5090565b828054600181600116156101000203166002900490600052602060002090601f016020900481019282601f1061219f57805160ff19168380011785556121cd565b828001600101855582156121cd579182015b828111156121cc5782518255916020019190600101906121b1565b5b5090506121da91906123b7565b5090565b828054600181600116156101000203166002900490600052602060002090601f016020900481019282601f1061221f57805160ff191683800117855561224d565b8280016001018555821561224d579182015b8281111561224c578251825591602001919060010190612231565b5b50905061225a91906123b7565b5090565b508054600082559060005260206000209081019061227c91906123b7565b50565b50805460018160011615610100020316600290046000825580601f106122a557506122c4565b601f0160209004906000526020600020908101906122c391906123b7565b5b50565b828054828255906000526020600020908101928215612316579160200282015b8281111561231557825182908051906020019061230592919061215e565b50916020019190600101906122e7565b5b50905061232391906123dc565b5090565b828054828255906000526020600020908101928215612363579160200282015b82811115612362578251825591602001919060010190612347565b5b50905061237091906123b7565b5090565b6123b491905b808211156123b057600081816101000a81549073ffffffffffffffffffffffffffffffffffffffff02191690555060010161237a565b5090565b90565b6123d991905b808211156123d55760008160009055506001016123bd565b5090565b90565b61240591905b8082111561240157600081816123f8919061227f565b506001016123e2565b5090565b9056fe2f686f6d652f6f786f66742f446f63756d656e74732f646170702f636f6e7472616374732f53746f726167652e736f6ca265627a7a723158207f105c0aecec06ea18d3da42631bba3381202d1c837a3a7a6f08ac27bb805c6564736f6c634300050c0032",
  "source": "pragma solidity ^0.5.8;\n\ncontract Storage {event __CoverageStorage(string fileName, uint256 lineNumber);\nevent __FunctionCoverageStorage(string fileName, uint256 fnId);\nevent __StatementCoverageStorage(string fileName, uint256 statementId);\nevent __BranchCoverageStorage(string fileName, uint256 branchId, uint256 locationIdx);\nevent __AssertPreCoverageStorage(string fileName, uint256 branchId);\nevent __AssertPostCoverageStorage(string fileName, uint256 branchId);\n\n    event StoredFile(address owner, uint index);\n\n    struct File {\n        address owner;\n        string hash;\n        uint amount;\n        mapping(address => bool) sharedWith;\n    }\n\n    File[] private files;\n\n    mapping(address => string[]) hashes;\n    mapping(string => address[]) hashShared;\n    mapping(address => uint[]) ownFiles;\n\n    modifier canView(uint index) {emit __FunctionCoverageStorage('/home/oxoft/Documents/dapp/contracts/Storage.sol',1);\n\nemit __CoverageStorage('/home/oxoft/Documents/dapp/contracts/Storage.sol',20);\n        emit __AssertPreCoverageStorage('/home/oxoft/Documents/dapp/contracts/Storage.sol',1);\nemit __StatementCoverageStorage('/home/oxoft/Documents/dapp/contracts/Storage.sol',1);\nrequire(files[index].sharedWith[msg.sender] || files[index].owner == msg.sender, 'You can not see the file');emit __AssertPostCoverageStorage('/home/oxoft/Documents/dapp/contracts/Storage.sol',1);\n\nemit __CoverageStorage('/home/oxoft/Documents/dapp/contracts/Storage.sol',21);\n        _;\n    }\n\n    function add(string memory hash, uint amount, address[] memory shareWith) public {emit __FunctionCoverageStorage('/home/oxoft/Documents/dapp/contracts/Storage.sol',2);\n\nemit __CoverageStorage('/home/oxoft/Documents/dapp/contracts/Storage.sol',25);\n        emit __StatementCoverageStorage('/home/oxoft/Documents/dapp/contracts/Storage.sol',2);\nhashShared[hash] = shareWith;\nemit __CoverageStorage('/home/oxoft/Documents/dapp/contracts/Storage.sol',26);\n        emit __StatementCoverageStorage('/home/oxoft/Documents/dapp/contracts/Storage.sol',3);\nuint index = files.push(File(msg.sender, hash, amount)) - 1;\nemit __CoverageStorage('/home/oxoft/Documents/dapp/contracts/Storage.sol',27);\n        emit __StatementCoverageStorage('/home/oxoft/Documents/dapp/contracts/Storage.sol',4);\nfor(uint32 i; i < shareWith.length; i++){\nemit __CoverageStorage('/home/oxoft/Documents/dapp/contracts/Storage.sol',28);\n            emit __StatementCoverageStorage('/home/oxoft/Documents/dapp/contracts/Storage.sol',5);\nfiles[index].sharedWith[shareWith[i]] = true;\n        }\n\nemit __CoverageStorage('/home/oxoft/Documents/dapp/contracts/Storage.sol',31);\n        emit __StatementCoverageStorage('/home/oxoft/Documents/dapp/contracts/Storage.sol',6);\nownFiles[msg.sender].push(index);\nemit __CoverageStorage('/home/oxoft/Documents/dapp/contracts/Storage.sol',32);\n        emit __StatementCoverageStorage('/home/oxoft/Documents/dapp/contracts/Storage.sol',7);\nhashes[msg.sender].push(hash);\nemit __CoverageStorage('/home/oxoft/Documents/dapp/contracts/Storage.sol',33);\n        emit __StatementCoverageStorage('/home/oxoft/Documents/dapp/contracts/Storage.sol',8);\nemit StoredFile(msg.sender, index);\n    }\n\n    function deleteFile(uint index) public canView(index) {emit __FunctionCoverageStorage('/home/oxoft/Documents/dapp/contracts/Storage.sol',3);\n\nemit __CoverageStorage('/home/oxoft/Documents/dapp/contracts/Storage.sol',37);\n        delete hashShared[files[index].hash];\nemit __CoverageStorage('/home/oxoft/Documents/dapp/contracts/Storage.sol',38);\n        delete files[index];\nemit __CoverageStorage('/home/oxoft/Documents/dapp/contracts/Storage.sol',39);\n        emit __StatementCoverageStorage('/home/oxoft/Documents/dapp/contracts/Storage.sol',9);\nhashes[msg.sender] = removeHashes(index, hashes[msg.sender]);\nemit __CoverageStorage('/home/oxoft/Documents/dapp/contracts/Storage.sol',40);\n        emit __StatementCoverageStorage('/home/oxoft/Documents/dapp/contracts/Storage.sol',10);\nownFiles[msg.sender] = remove(index, ownFiles[msg.sender]);\n    }\n\n    function getFile(uint index) public      canView(index) returns(string memory){emit __FunctionCoverageStorage('/home/oxoft/Documents/dapp/contracts/Storage.sol',4);\n\nemit __CoverageStorage('/home/oxoft/Documents/dapp/contracts/Storage.sol',44);\n        emit __StatementCoverageStorage('/home/oxoft/Documents/dapp/contracts/Storage.sol',11);\nreturn files[index].hash;\n    }\n\n    function getIndexes() public      returns (uint[] memory) {emit __FunctionCoverageStorage('/home/oxoft/Documents/dapp/contracts/Storage.sol',5);\n\nemit __CoverageStorage('/home/oxoft/Documents/dapp/contracts/Storage.sol',48);\n        emit __StatementCoverageStorage('/home/oxoft/Documents/dapp/contracts/Storage.sol',12);\nreturn ownFiles[msg.sender];\n    }\n\n    function removeHashes(uint index, string[] memory array) private      returns(string[] memory) {emit __FunctionCoverageStorage('/home/oxoft/Documents/dapp/contracts/Storage.sol',6);\n\nemit __CoverageStorage('/home/oxoft/Documents/dapp/contracts/Storage.sol',52);\n        emit __StatementCoverageStorage('/home/oxoft/Documents/dapp/contracts/Storage.sol',13);\nfor (uint i = index; i < array.length - 1; i++) {\nemit __CoverageStorage('/home/oxoft/Documents/dapp/contracts/Storage.sol',53);\n            emit __StatementCoverageStorage('/home/oxoft/Documents/dapp/contracts/Storage.sol',14);\narray[i] = array[i+1];\n        }\nemit __CoverageStorage('/home/oxoft/Documents/dapp/contracts/Storage.sol',55);\n        delete array[array.length-1];\nemit __CoverageStorage('/home/oxoft/Documents/dapp/contracts/Storage.sol',56);\n        emit __StatementCoverageStorage('/home/oxoft/Documents/dapp/contracts/Storage.sol',15);\nreturn array;\n    }\n\n    function remove(uint index, uint[] memory array) private      returns(uint[] memory) {emit __FunctionCoverageStorage('/home/oxoft/Documents/dapp/contracts/Storage.sol',7);\n\nemit __CoverageStorage('/home/oxoft/Documents/dapp/contracts/Storage.sol',60);\n        emit __StatementCoverageStorage('/home/oxoft/Documents/dapp/contracts/Storage.sol',16);\nfor (uint i = index; i < array.length - 1; i++) {\nemit __CoverageStorage('/home/oxoft/Documents/dapp/contracts/Storage.sol',61);\n            emit __StatementCoverageStorage('/home/oxoft/Documents/dapp/contracts/Storage.sol',17);\narray[i] = array[i+1];\n        }\nemit __CoverageStorage('/home/oxoft/Documents/dapp/contracts/Storage.sol',63);\n        delete array[array.length-1];\nemit __CoverageStorage('/home/oxoft/Documents/dapp/contracts/Storage.sol',64);\n        emit __StatementCoverageStorage('/home/oxoft/Documents/dapp/contracts/Storage.sol',18);\nreturn array;\n    }\n}",
  "sourcePath": "/home/oxoft/Documents/dapp/coverageEnv/contracts/Storage.sol",
  "compiler": {
    "name": "solc",
    "version": "0.5.12+commit.7709ece9.Emscripten.clang"
  },
  "schemaVersion": "3.0.19",
  "updatedAt": "2019-11-26T12:47:44.694Z",
  "devdoc": {
    "methods": {}
  },
  "userdoc": {
    "methods": {}
  }
}