{
  "contractName": "Storage",
  "abi": [
    {
      "anonymous": false,
      "inputs": [
        {
          "indexed": false,
          "internalType": "address",
          "name": "owner",
          "type": "address"
        }
      ],
      "name": "FileStoredBy",
      "type": "event"
    },
    {
      "constant": false,
      "inputs": [
        {
          "internalType": "string",
          "name": "hash",
          "type": "string"
        },
        {
          "internalType": "address[]",
          "name": "shareWith",
          "type": "address[]"
        },
        {
          "internalType": "uint256",
          "name": "amount",
          "type": "uint256"
        }
      ],
      "name": "store",
      "outputs": [],
      "payable": false,
      "stateMutability": "nonpayable",
      "type": "function"
    }
  ],
  "bytecode": "0x608060405234801561001057600080fd5b5061048a806100206000396000f3fe608060405234801561001057600080fd5b506004361061002b5760003560e01c8063b5888a7d14610030575b600080fd5b6101876004803603606081101561004657600080fd5b810190808035906020019064010000000081111561006357600080fd5b82018360208201111561007557600080fd5b8035906020019184600183028401116401000000008311171561009757600080fd5b91908080601f016020809104026020016040519081016040528093929190818152602001838380828437600081840152601f19601f820116905080830192505050505050509192919290803590602001906401000000008111156100fa57600080fd5b82018360208201111561010c57600080fd5b8035906020019184602083028401116401000000008311171561012e57600080fd5b919080806020026020016040519081016040528093929190818152602001838360200280828437600081840152601f19601f82011690508083019250505050505050919291929080359060200190929190505050610189565b005b600060405180608001604052803373ffffffffffffffffffffffffffffffffffffffff168152602001858152602001848152602001838152509080600181540180825580915050906001820390600052602060002090600402016000909192909190915060008201518160000160006101000a81548173ffffffffffffffffffffffffffffffffffffffff021916908373ffffffffffffffffffffffffffffffffffffffff16021790555060208201518160010190805190602001906102509291906102e3565b50604082015181600201908051906020019061026d929190610363565b50606082015181600301555050507fafcb7505fb971eddabc4d41f25642a78f1db3ac2cf1dd2ba27e7ae102f81d6e233604051808273ffffffffffffffffffffffffffffffffffffffff1673ffffffffffffffffffffffffffffffffffffffff16815260200191505060405180910390a1505050565b828054600181600116156101000203166002900490600052602060002090601f016020900481019282601f1061032457805160ff1916838001178555610352565b82800160010185558215610352579182015b82811115610351578251825591602001919060010190610336565b5b50905061035f91906103ed565b5090565b8280548282559060005260206000209081019282156103dc579160200282015b828111156103db5782518260006101000a81548173ffffffffffffffffffffffffffffffffffffffff021916908373ffffffffffffffffffffffffffffffffffffffff16021790555091602001919060010190610383565b5b5090506103e99190610412565b5090565b61040f91905b8082111561040b5760008160009055506001016103f3565b5090565b90565b61045291905b8082111561044e57600081816101000a81549073ffffffffffffffffffffffffffffffffffffffff021916905550600101610418565b5090565b9056fea265627a7a723158200aeda5f7339bf17770b2571265475fe440a283c2cb965f63a676dd0fcd0700d464736f6c634300050c0032",
  "source": "pragma solidity ^0.5.8;\n\ncontract Storage {\n    event FileStoredBy(address owner);\n\n    struct File {\n        address owner;\n        string hash;\n        address[] shareWith;\n        uint amount;\n    }\n    File[] private files;\n\n    function store(string memory hash, address[] memory shareWith, uint amount) public {\n        files.push(File(msg.sender, hash, shareWith, amount));\n        emit FileStoredBy(msg.sender);\n    }\n}",
  "sourcePath": "/home/oxoft/Documents/dapp/contracts/Storage.sol",
  "compiler": {
    "name": "solc",
    "version": "0.5.12+commit.7709ece9.Emscripten.clang"
  },
  "schemaVersion": "3.0.19",
  "updatedAt": "2019-11-25T15:18:58.650Z",
  "networkType": "ethereum",
  "devdoc": {
    "methods": {}
  },
  "userdoc": {
    "methods": {}
  }
}